:0A08E700E4F5A0F5B012087480FBE0
:080800007F027E007D007C00F8
:100808008F0B8E0A8D098C08E4FFFEFDFCAB0BAA4A
:0B0818000AA909A808D31208CA405022
:10082300E4750F01F50EF50DF50CE47FCE7E31FD79
:10083300FCAB0FAA0EA90DA80CC31208CA5017E5EA
:100843000F2401F50FE4350EF50EE4350DF50DE437
:10085300350CF50C80D4E50B24FFF50BE50A34FFCA
:0E086300F50AE50934FFF509E50834FFF5084C
:03087100809D2245
:1008740075A01475B00912080075A02175B0097F20
:100884000A12080275A02175B00A12080075A009A1
:1008940075B00C7F0A12080275A00975B01412080D
:1008A4000075A00975B0217F0A12080275A00A75A7
:1008B400B02112080075A00C75B0097F0A7E007D76
:0608C400007C00020808A0
:030000000208DB18
:0C08DB00787FE4F6D8FD75810F0208E775
:1008CA00EB9FF5F0EA9E42F0E99D42F0E89C45F084
:0108DA0022FB
:00000001FF
